{
  "_format": "hh-sol-artifact-1",
  "contractName": "Bikes",
  "sourceName": "contracts/Bikes.sol",
  "abi": [
    {
      "inputs": [
        {
          "internalType": "string",
          "name": "bike_type",
          "type": "string"
        },
        {
          "internalType": "string",
          "name": "model",
          "type": "string"
        }
      ],
      "stateMutability": "nonpayable",
      "type": "constructor"
    },
    {
      "anonymous": false,
      "inputs": [
        {
          "indexed": true,
          "internalType": "address",
          "name": "owner",
          "type": "address"
        },
        {
          "indexed": true,
          "internalType": "address",
          "name": "approved",
          "type": "address"
        },
        {
          "indexed": true,
          "internalType": "uint256",
          "name": "tokenId",
          "type": "uint256"
        }
      ],
      "name": "Approval",
      "type": "event"
    },
    {
      "anonymous": false,
      "inputs": [
        {
          "indexed": true,
          "internalType": "address",
          "name": "owner",
          "type": "address"
        },
        {
          "indexed": true,
          "internalType": "address",
          "name": "operator",
          "type": "address"
        },
        {
          "indexed": false,
          "internalType": "bool",
          "name": "approved",
          "type": "bool"
        }
      ],
      "name": "ApprovalForAll",
      "type": "event"
    },
    {
      "anonymous": false,
      "inputs": [
        {
          "indexed": true,
          "internalType": "address",
          "name": "from",
          "type": "address"
        },
        {
          "indexed": true,
          "internalType": "address",
          "name": "to",
          "type": "address"
        },
        {
          "indexed": true,
          "internalType": "uint256",
          "name": "tokenId",
          "type": "uint256"
        }
      ],
      "name": "Transfer",
      "type": "event"
    },
    {
      "inputs": [
        {
          "internalType": "address",
          "name": "to",
          "type": "address"
        },
        {
          "internalType": "uint256",
          "name": "tokenId",
          "type": "uint256"
        }
      ],
      "name": "approve",
      "outputs": [],
      "stateMutability": "nonpayable",
      "type": "function"
    },
    {
      "inputs": [
        {
          "internalType": "address",
          "name": "owner",
          "type": "address"
        }
      ],
      "name": "balanceOf",
      "outputs": [
        {
          "internalType": "uint256",
          "name": "",
          "type": "uint256"
        }
      ],
      "stateMutability": "view",
      "type": "function"
    },
    {
      "inputs": [
        {
          "internalType": "uint256",
          "name": "tokenId",
          "type": "uint256"
        }
      ],
      "name": "getApproved",
      "outputs": [
        {
          "internalType": "address",
          "name": "",
          "type": "address"
        }
      ],
      "stateMutability": "view",
      "type": "function"
    },
    {
      "inputs": [
        {
          "internalType": "address",
          "name": "owner",
          "type": "address"
        },
        {
          "internalType": "address",
          "name": "operator",
          "type": "address"
        }
      ],
      "name": "isApprovedForAll",
      "outputs": [
        {
          "internalType": "bool",
          "name": "",
          "type": "bool"
        }
      ],
      "stateMutability": "view",
      "type": "function"
    },
    {
      "inputs": [
        {
          "internalType": "string",
          "name": "_tokenURI",
          "type": "string"
        }
      ],
      "name": "mint",
      "outputs": [],
      "stateMutability": "nonpayable",
      "type": "function"
    },
    {
      "inputs": [],
      "name": "name",
      "outputs": [
        {
          "internalType": "string",
          "name": "",
          "type": "string"
        }
      ],
      "stateMutability": "view",
      "type": "function"
    },
    {
      "inputs": [
        {
          "internalType": "uint256",
          "name": "tokenId",
          "type": "uint256"
        }
      ],
      "name": "ownerOf",
      "outputs": [
        {
          "internalType": "address",
          "name": "",
          "type": "address"
        }
      ],
      "stateMutability": "view",
      "type": "function"
    },
    {
      "inputs": [
        {
          "internalType": "address",
          "name": "from",
          "type": "address"
        },
        {
          "internalType": "address",
          "name": "to",
          "type": "address"
        },
        {
          "internalType": "uint256",
          "name": "tokenId",
          "type": "uint256"
        }
      ],
      "name": "safeTransferFrom",
      "outputs": [],
      "stateMutability": "nonpayable",
      "type": "function"
    },
    {
      "inputs": [
        {
          "internalType": "address",
          "name": "from",
          "type": "address"
        },
        {
          "internalType": "address",
          "name": "to",
          "type": "address"
        },
        {
          "internalType": "uint256",
          "name": "tokenId",
          "type": "uint256"
        },
        {
          "internalType": "bytes",
          "name": "data",
          "type": "bytes"
        }
      ],
      "name": "safeTransferFrom",
      "outputs": [],
      "stateMutability": "nonpayable",
      "type": "function"
    },
    {
      "inputs": [
        {
          "internalType": "address",
          "name": "operator",
          "type": "address"
        },
        {
          "internalType": "bool",
          "name": "approved",
          "type": "bool"
        }
      ],
      "name": "setApprovalForAll",
      "outputs": [],
      "stateMutability": "nonpayable",
      "type": "function"
    },
    {
      "inputs": [
        {
          "internalType": "bytes4",
          "name": "interfaceId",
          "type": "bytes4"
        }
      ],
      "name": "supportsInterface",
      "outputs": [
        {
          "internalType": "bool",
          "name": "",
          "type": "bool"
        }
      ],
      "stateMutability": "view",
      "type": "function"
    },
    {
      "inputs": [],
      "name": "symbol",
      "outputs": [
        {
          "internalType": "string",
          "name": "",
          "type": "string"
        }
      ],
      "stateMutability": "view",
      "type": "function"
    },
    {
      "inputs": [],
      "name": "tokenCounter",
      "outputs": [
        {
          "internalType": "uint256",
          "name": "",
          "type": "uint256"
        }
      ],
      "stateMutability": "view",
      "type": "function"
    },
    {
      "inputs": [
        {
          "internalType": "uint256",
          "name": "_tokenId",
          "type": "uint256"
        }
      ],
      "name": "tokenURI",
      "outputs": [
        {
          "internalType": "string",
          "name": "",
          "type": "string"
        }
      ],
      "stateMutability": "view",
      "type": "function"
    },
    {
      "inputs": [
        {
          "internalType": "address",
          "name": "from",
          "type": "address"
        },
        {
          "internalType": "address",
          "name": "to",
          "type": "address"
        },
        {
          "internalType": "uint256",
          "name": "tokenId",
          "type": "uint256"
        }
      ],
      "name": "transferFrom",
      "outputs": [],
      "stateMutability": "nonpayable",
      "type": "function"
    }
  ],
  "bytecode": "0x60806040523480156200001157600080fd5b5060405162002f1438038062002f14833981810160405281019062000037919062000202565b818181600090816200004a9190620004d2565b5080600190816200005c9190620004d2565b50505060006006819055505050620005b9565b6000604051905090565b600080fd5b600080fd5b600080fd5b600080fd5b6000601f19601f8301169050919050565b7f4e487b7100000000000000000000000000000000000000000000000000000000600052604160045260246000fd5b620000d8826200008d565b810181811067ffffffffffffffff82111715620000fa57620000f96200009e565b5b80604052505050565b60006200010f6200006f565b90506200011d8282620000cd565b919050565b600067ffffffffffffffff82111562000140576200013f6200009e565b5b6200014b826200008d565b9050602081019050919050565b60005b83811015620001785780820151818401526020810190506200015b565b60008484015250505050565b60006200019b620001958462000122565b62000103565b905082815260208101848484011115620001ba57620001b962000088565b5b620001c784828562000158565b509392505050565b600082601f830112620001e757620001e662000083565b5b8151620001f984826020860162000184565b91505092915050565b600080604083850312156200021c576200021b62000079565b5b600083015167ffffffffffffffff8111156200023d576200023c6200007e565b5b6200024b85828601620001cf565b925050602083015167ffffffffffffffff8111156200026f576200026e6200007e565b5b6200027d85828601620001cf565b9150509250929050565b600081519050919050565b7f4e487b7100000000000000000000000000000000000000000000000000000000600052602260045260246000fd5b60006002820490506001821680620002da57607f821691505b602082108103620002f057620002ef62000292565b5b50919050565b60008190508160005260206000209050919050565b60006020601f8301049050919050565b600082821b905092915050565b6000600883026200035a7fffffffffffffffffffffffffffffffffffffffffffffffffffffffffffffffff826200031b565b6200036686836200031b565b95508019841693508086168417925050509392505050565b6000819050919050565b6000819050919050565b6000620003b3620003ad620003a7846200037e565b62000388565b6200037e565b9050919050565b6000819050919050565b620003cf8362000392565b620003e7620003de82620003ba565b84845462000328565b825550505050565b600090565b620003fe620003ef565b6200040b818484620003c4565b505050565b5b81811015620004335762000427600082620003f4565b60018101905062000411565b5050565b601f82111562000482576200044c81620002f6565b62000457846200030b565b8101602085101562000467578190505b6200047f62000476856200030b565b83018262000410565b50505b505050565b600082821c905092915050565b6000620004a76000198460080262000487565b1980831691505092915050565b6000620004c2838362000494565b9150826002028217905092915050565b620004dd8262000287565b67ffffffffffffffff811115620004f957620004f86200009e565b5b620005058254620002c1565b6200051282828562000437565b600060209050601f8311600181146200054a576000841562000535578287015190505b620005418582620004b4565b865550620005b1565b601f1984166200055a86620002f6565b60005b8281101562000584578489015182556001820191506020850194506020810190506200055d565b86831015620005a45784890151620005a0601f89168262000494565b8355505b6001600288020188555050505b505050505050565b61294b80620005c96000396000f3fe608060405234801561001057600080fd5b50600436106100f55760003560e01c806370a0823111610097578063c87b56dd11610066578063c87b56dd14610282578063d082e381146102b2578063d85d3d27146102d0578063e985e9c5146102ec576100f5565b806370a08231146101fc57806395d89b411461022c578063a22cb4651461024a578063b88d4fde14610266576100f5565b8063095ea7b3116100d3578063095ea7b31461017857806323b872dd1461019457806342842e0e146101b05780636352211e146101cc576100f5565b806301ffc9a7146100fa57806306fdde031461012a578063081812fc14610148575b600080fd5b610114600480360381019061010f91906117fd565b61031c565b6040516101219190611845565b60405180910390f35b6101326103fe565b60405161013f91906118f0565b60405180910390f35b610162600480360381019061015d9190611948565b610490565b60405161016f91906119b6565b60405180910390f35b610192600480360381019061018d91906119fd565b6104d6565b005b6101ae60048036038101906101a99190611a3d565b6105ed565b005b6101ca60048036038101906101c59190611a3d565b61064d565b005b6101e660048036038101906101e19190611948565b61066d565b6040516101f391906119b6565b60405180910390f35b61021660048036038101906102119190611a90565b6106f3565b6040516102239190611acc565b60405180910390f35b6102346107aa565b60405161024191906118f0565b60405180910390f35b610264600480360381019061025f9190611b13565b61083c565b005b610280600480360381019061027b9190611c88565b610852565b005b61029c60048036038101906102979190611948565b6108b4565b6040516102a991906118f0565b60405180910390f35b6102ba6109a1565b6040516102c79190611acc565b60405180910390f35b6102ea60048036038101906102e59190611dac565b6109a7565b005b61030660048036038101906103019190611df5565b6109da565b6040516103139190611845565b60405180910390f35b60007f80ac58cd000000000000000000000000000000000000000000000000000000007bffffffffffffffffffffffffffffffffffffffffffffffffffffffff1916827bffffffffffffffffffffffffffffffffffffffffffffffffffffffff191614806103e757507f5b5e139f000000000000000000000000000000000000000000000000000000007bffffffffffffffffffffffffffffffffffffffffffffffffffffffff1916827bffffffffffffffffffffffffffffffffffffffffffffffffffffffff1916145b806103f757506103f682610a6e565b5b9050919050565b60606000805461040d90611e64565b80601f016020809104026020016040519081016040528092919081815260200182805461043990611e64565b80156104865780601f1061045b57610100808354040283529160200191610486565b820191906000526020600020905b81548152906001019060200180831161046957829003601f168201915b5050505050905090565b600061049b82610ad8565b6004600083815260200190815260200160002060009054906101000a900473ffffffffffffffffffffffffffffffffffffffff169050919050565b60006104e18261066d565b90508073ffffffffffffffffffffffffffffffffffffffff168373ffffffffffffffffffffffffffffffffffffffff1603610551576040517f08c379a000000000000000000000000000000000000000000000000000000000815260040161054890611f07565b60405180910390fd5b8073ffffffffffffffffffffffffffffffffffffffff16610570610b23565b73ffffffffffffffffffffffffffffffffffffffff16148061059f575061059e81610599610b23565b6109da565b5b6105de576040517f08c379a00000000000000000000000000000000000000000000000000000000081526004016105d590611f99565b60405180910390fd5b6105e88383610b2b565b505050565b6105fe6105f8610b23565b82610be4565b61063d576040517f08c379a00000000000000000000000000000000000000000000000000000000081526004016106349061202b565b60405180910390fd5b610648838383610c79565b505050565b61066883838360405180602001604052806000815250610852565b505050565b60008061067983610f72565b9050600073ffffffffffffffffffffffffffffffffffffffff168173ffffffffffffffffffffffffffffffffffffffff16036106ea576040517f08c379a00000000000000000000000000000000000000000000000000000000081526004016106e190612097565b60405180910390fd5b80915050919050565b60008073ffffffffffffffffffffffffffffffffffffffff168273ffffffffffffffffffffffffffffffffffffffff1603610763576040517f08c379a000000000000000000000000000000000000000000000000000000000815260040161075a90612129565b60405180910390fd5b600360008373ffffffffffffffffffffffffffffffffffffffff1673ffffffffffffffffffffffffffffffffffffffff168152602001908152602001600020549050919050565b6060600180546107b990611e64565b80601f01602080910402602001604051908101604052809291908181526020018280546107e590611e64565b80156108325780601f1061080757610100808354040283529160200191610832565b820191906000526020600020905b81548152906001019060200180831161081557829003601f168201915b5050505050905090565b61084e610847610b23565b8383610faf565b5050565b61086361085d610b23565b83610be4565b6108a2576040517f08c379a00000000000000000000000000000000000000000000000000000000081526004016108999061202b565b60405180910390fd5b6108ae8484848461111b565b50505050565b60606108bf82611177565b6108fe576040517f08c379a00000000000000000000000000000000000000000000000000000000081526004016108f5906121bb565b60405180910390fd5b60076000838152602001908152602001600020805461091c90611e64565b80601f016020809104026020016040519081016040528092919081815260200182805461094890611e64565b80156109955780601f1061096a57610100808354040283529160200191610995565b820191906000526020600020905b81548152906001019060200180831161097857829003601f168201915b50505050509050919050565b60065481565b6109b3336006546111b8565b6109bf600654826111d6565b600660008154809291906109d29061220a565b919050555050565b6000600560008473ffffffffffffffffffffffffffffffffffffffff1673ffffffffffffffffffffffffffffffffffffffff16815260200190815260200160002060008373ffffffffffffffffffffffffffffffffffffffff1673ffffffffffffffffffffffffffffffffffffffff16815260200190815260200160002060009054906101000a900460ff16905092915050565b60007f01ffc9a7000000000000000000000000000000000000000000000000000000007bffffffffffffffffffffffffffffffffffffffffffffffffffffffff1916827bffffffffffffffffffffffffffffffffffffffffffffffffffffffff1916149050919050565b610ae181611177565b610b20576040517f08c379a0000000000000000000000000000000000000000000000000000000008152600401610b1790612097565b60405180910390fd5b50565b600033905090565b816004600083815260200190815260200160002060006101000a81548173ffffffffffffffffffffffffffffffffffffffff021916908373ffffffffffffffffffffffffffffffffffffffff160217905550808273ffffffffffffffffffffffffffffffffffffffff16610b9e8361066d565b73ffffffffffffffffffffffffffffffffffffffff167f8c5be1e5ebec7d5bd14f71427d1e84f3dd0314c0f7b2291e5b200ac8c7c3b92560405160405180910390a45050565b600080610bf08361066d565b90508073ffffffffffffffffffffffffffffffffffffffff168473ffffffffffffffffffffffffffffffffffffffff161480610c325750610c3181856109da565b5b80610c7057508373ffffffffffffffffffffffffffffffffffffffff16610c5884610490565b73ffffffffffffffffffffffffffffffffffffffff16145b91505092915050565b8273ffffffffffffffffffffffffffffffffffffffff16610c998261066d565b73ffffffffffffffffffffffffffffffffffffffff1614610cef576040517f08c379a0000000000000000000000000000000000000000000000000000000008152600401610ce6906122c4565b60405180910390fd5b600073ffffffffffffffffffffffffffffffffffffffff168273ffffffffffffffffffffffffffffffffffffffff1603610d5e576040517f08c379a0000000000000000000000000000000000000000000000000000000008152600401610d5590612356565b60405180910390fd5b610d6b8383836001611243565b8273ffffffffffffffffffffffffffffffffffffffff16610d8b8261066d565b73ffffffffffffffffffffffffffffffffffffffff1614610de1576040517f08c379a0000000000000000000000000000000000000000000000000000000008152600401610dd8906122c4565b60405180910390fd5b6004600082815260200190815260200160002060006101000a81549073ffffffffffffffffffffffffffffffffffffffff02191690556001600360008573ffffffffffffffffffffffffffffffffffffffff1673ffffffffffffffffffffffffffffffffffffffff168152602001908152602001600020600082825403925050819055506001600360008473ffffffffffffffffffffffffffffffffffffffff1673ffffffffffffffffffffffffffffffffffffffff16815260200190815260200160002060008282540192505081905550816002600083815260200190815260200160002060006101000a81548173ffffffffffffffffffffffffffffffffffffffff021916908373ffffffffffffffffffffffffffffffffffffffff160217905550808273ffffffffffffffffffffffffffffffffffffffff168473ffffffffffffffffffffffffffffffffffffffff167fddf252ad1be2c89b69c2b068fc378daa952ba7f163c4a11628f55a4df523b3ef60405160405180910390a4610f6d8383836001611369565b505050565b60006002600083815260200190815260200160002060009054906101000a900473ffffffffffffffffffffffffffffffffffffffff169050919050565b8173ffffffffffffffffffffffffffffffffffffffff168373ffffffffffffffffffffffffffffffffffffffff160361101d576040517f08c379a0000000000000000000000000000000000000000000000000000000008152600401611014906123c2565b60405180910390fd5b80600560008573ffffffffffffffffffffffffffffffffffffffff1673ffffffffffffffffffffffffffffffffffffffff16815260200190815260200160002060008473ffffffffffffffffffffffffffffffffffffffff1673ffffffffffffffffffffffffffffffffffffffff16815260200190815260200160002060006101000a81548160ff0219169083151502179055508173ffffffffffffffffffffffffffffffffffffffff168373ffffffffffffffffffffffffffffffffffffffff167f17307eab39ab6107e8899845ad3d59bd9653f200f220920489ca2b5937696c318360405161110e9190611845565b60405180910390a3505050565b611126848484610c79565b6111328484848461136f565b611171576040517f08c379a000000000000000000000000000000000000000000000000000000000815260040161116890612454565b60405180910390fd5b50505050565b60008073ffffffffffffffffffffffffffffffffffffffff1661119983610f72565b73ffffffffffffffffffffffffffffffffffffffff1614159050919050565b6111d28282604051806020016040528060008152506114f6565b5050565b6111df82611177565b61121e576040517f08c379a0000000000000000000000000000000000000000000000000000000008152600401611215906121bb565b60405180910390fd5b8060076000848152602001908152602001600020908161123e9190612620565b505050565b600181111561136357600073ffffffffffffffffffffffffffffffffffffffff168473ffffffffffffffffffffffffffffffffffffffff16146112d75780600360008673ffffffffffffffffffffffffffffffffffffffff1673ffffffffffffffffffffffffffffffffffffffff16815260200190815260200160002060008282546112cf91906126f2565b925050819055505b600073ffffffffffffffffffffffffffffffffffffffff168373ffffffffffffffffffffffffffffffffffffffff16146113625780600360008573ffffffffffffffffffffffffffffffffffffffff1673ffffffffffffffffffffffffffffffffffffffff168152602001908152602001600020600082825461135a9190612726565b925050819055505b5b50505050565b50505050565b60006113908473ffffffffffffffffffffffffffffffffffffffff16611551565b156114e9578373ffffffffffffffffffffffffffffffffffffffff1663150b7a026113b9610b23565b8786866040518563ffffffff1660e01b81526004016113db94939291906127af565b6020604051808303816000875af192505050801561141757506040513d601f19601f820116820180604052508101906114149190612810565b60015b611499573d8060008114611447576040519150601f19603f3d011682016040523d82523d6000602084013e61144c565b606091505b506000815103611491576040517f08c379a000000000000000000000000000000000000000000000000000000000815260040161148890612454565b60405180910390fd5b805181602001fd5b63150b7a0260e01b7bffffffffffffffffffffffffffffffffffffffffffffffffffffffff1916817bffffffffffffffffffffffffffffffffffffffffffffffffffffffff1916149150506114ee565b600190505b949350505050565b6115008383611574565b61150d600084848461136f565b61154c576040517f08c379a000000000000000000000000000000000000000000000000000000000815260040161154390612454565b60405180910390fd5b505050565b6000808273ffffffffffffffffffffffffffffffffffffffff163b119050919050565b600073ffffffffffffffffffffffffffffffffffffffff168273ffffffffffffffffffffffffffffffffffffffff16036115e3576040517f08c379a00000000000000000000000000000000000000000000000000000000081526004016115da90612889565b60405180910390fd5b6115ec81611177565b1561162c576040517f08c379a0000000000000000000000000000000000000000000000000000000008152600401611623906128f5565b60405180910390fd5b61163a600083836001611243565b61164381611177565b15611683576040517f08c379a000000000000000000000000000000000000000000000000000000000815260040161167a906128f5565b60405180910390fd5b6001600360008473ffffffffffffffffffffffffffffffffffffffff1673ffffffffffffffffffffffffffffffffffffffff16815260200190815260200160002060008282540192505081905550816002600083815260200190815260200160002060006101000a81548173ffffffffffffffffffffffffffffffffffffffff021916908373ffffffffffffffffffffffffffffffffffffffff160217905550808273ffffffffffffffffffffffffffffffffffffffff16600073ffffffffffffffffffffffffffffffffffffffff167fddf252ad1be2c89b69c2b068fc378daa952ba7f163c4a11628f55a4df523b3ef60405160405180910390a461178d600083836001611369565b5050565b6000604051905090565b600080fd5b600080fd5b60007fffffffff0000000000000000000000000000000000000000000000000000000082169050919050565b6117da816117a5565b81146117e557600080fd5b50565b6000813590506117f7816117d1565b92915050565b6000602082840312156118135761181261179b565b5b6000611821848285016117e8565b91505092915050565b60008115159050919050565b61183f8161182a565b82525050565b600060208201905061185a6000830184611836565b92915050565b600081519050919050565b600082825260208201905092915050565b60005b8381101561189a57808201518184015260208101905061187f565b60008484015250505050565b6000601f19601f8301169050919050565b60006118c282611860565b6118cc818561186b565b93506118dc81856020860161187c565b6118e5816118a6565b840191505092915050565b6000602082019050818103600083015261190a81846118b7565b905092915050565b6000819050919050565b61192581611912565b811461193057600080fd5b50565b6000813590506119428161191c565b92915050565b60006020828403121561195e5761195d61179b565b5b600061196c84828501611933565b91505092915050565b600073ffffffffffffffffffffffffffffffffffffffff82169050919050565b60006119a082611975565b9050919050565b6119b081611995565b82525050565b60006020820190506119cb60008301846119a7565b92915050565b6119da81611995565b81146119e557600080fd5b50565b6000813590506119f7816119d1565b92915050565b60008060408385031215611a1457611a1361179b565b5b6000611a22858286016119e8565b9250506020611a3385828601611933565b9150509250929050565b600080600060608486031215611a5657611a5561179b565b5b6000611a64868287016119e8565b9350506020611a75868287016119e8565b9250506040611a8686828701611933565b9150509250925092565b600060208284031215611aa657611aa561179b565b5b6000611ab4848285016119e8565b91505092915050565b611ac681611912565b82525050565b6000602082019050611ae16000830184611abd565b92915050565b611af08161182a565b8114611afb57600080fd5b50565b600081359050611b0d81611ae7565b92915050565b60008060408385031215611b2a57611b2961179b565b5b6000611b38858286016119e8565b9250506020611b4985828601611afe565b9150509250929050565b600080fd5b600080fd5b7f4e487b7100000000000000000000000000000000000000000000000000000000600052604160045260246000fd5b611b95826118a6565b810181811067ffffffffffffffff82111715611bb457611bb3611b5d565b5b80604052505050565b6000611bc7611791565b9050611bd38282611b8c565b919050565b600067ffffffffffffffff821115611bf357611bf2611b5d565b5b611bfc826118a6565b9050602081019050919050565b82818337600083830152505050565b6000611c2b611c2684611bd8565b611bbd565b905082815260208101848484011115611c4757611c46611b58565b5b611c52848285611c09565b509392505050565b600082601f830112611c6f57611c6e611b53565b5b8135611c7f848260208601611c18565b91505092915050565b60008060008060808587031215611ca257611ca161179b565b5b6000611cb0878288016119e8565b9450506020611cc1878288016119e8565b9350506040611cd287828801611933565b925050606085013567ffffffffffffffff811115611cf357611cf26117a0565b5b611cff87828801611c5a565b91505092959194509250565b600067ffffffffffffffff821115611d2657611d25611b5d565b5b611d2f826118a6565b9050602081019050919050565b6000611d4f611d4a84611d0b565b611bbd565b905082815260208101848484011115611d6b57611d6a611b58565b5b611d76848285611c09565b509392505050565b600082601f830112611d9357611d92611b53565b5b8135611da3848260208601611d3c565b91505092915050565b600060208284031215611dc257611dc161179b565b5b600082013567ffffffffffffffff811115611de057611ddf6117a0565b5b611dec84828501611d7e565b91505092915050565b60008060408385031215611e0c57611e0b61179b565b5b6000611e1a858286016119e8565b9250506020611e2b858286016119e8565b9150509250929050565b7f4e487b7100000000000000000000000000000000000000000000000000000000600052602260045260246000fd5b60006002820490506001821680611e7c57607f821691505b602082108103611e8f57611e8e611e35565b5b50919050565b7f4552433732313a20617070726f76616c20746f2063757272656e74206f776e6560008201527f7200000000000000000000000000000000000000000000000000000000000000602082015250565b6000611ef160218361186b565b9150611efc82611e95565b604082019050919050565b60006020820190508181036000830152611f2081611ee4565b9050919050565b7f4552433732313a20617070726f76652063616c6c6572206973206e6f7420746f60008201527f6b656e206f776e6572206f7220617070726f76656420666f7220616c6c000000602082015250565b6000611f83603d8361186b565b9150611f8e82611f27565b604082019050919050565b60006020820190508181036000830152611fb281611f76565b9050919050565b7f4552433732313a2063616c6c6572206973206e6f7420746f6b656e206f776e6560008201527f72206f7220617070726f76656400000000000000000000000000000000000000602082015250565b6000612015602d8361186b565b915061202082611fb9565b604082019050919050565b6000602082019050818103600083015261204481612008565b9050919050565b7f4552433732313a20696e76616c696420746f6b656e2049440000000000000000600082015250565b600061208160188361186b565b915061208c8261204b565b602082019050919050565b600060208201905081810360008301526120b081612074565b9050919050565b7f4552433732313a2061646472657373207a65726f206973206e6f74206120766160008201527f6c6964206f776e65720000000000000000000000000000000000000000000000602082015250565b600061211360298361186b565b915061211e826120b7565b604082019050919050565b6000602082019050818103600083015261214281612106565b9050919050565b7f4552433732314d657461646174613a2055524920736574206f66206e6f6e657860008201527f697374656e7420746f6b656e0000000000000000000000000000000000000000602082015250565b60006121a5602c8361186b565b91506121b082612149565b604082019050919050565b600060208201905081810360008301526121d481612198565b9050919050565b7f4e487b7100000000000000000000000000000000000000000000000000000000600052601160045260246000fd5b600061221582611912565b91507fffffffffffffffffffffffffffffffffffffffffffffffffffffffffffffffff8203612247576122466121db565b5b600182019050919050565b7f4552433732313a207472616e736665722066726f6d20696e636f72726563742060008201527f6f776e6572000000000000000000000000000000000000000000000000000000602082015250565b60006122ae60258361186b565b91506122b982612252565b604082019050919050565b600060208201905081810360008301526122dd816122a1565b9050919050565b7f4552433732313a207472616e7366657220746f20746865207a65726f2061646460008201527f7265737300000000000000000000000000000000000000000000000000000000602082015250565b600061234060248361186b565b915061234b826122e4565b604082019050919050565b6000602082019050818103600083015261236f81612333565b9050919050565b7f4552433732313a20617070726f766520746f2063616c6c657200000000000000600082015250565b60006123ac60198361186b565b91506123b782612376565b602082019050919050565b600060208201905081810360008301526123db8161239f565b9050919050565b7f4552433732313a207472616e7366657220746f206e6f6e20455243373231526560008201527f63656976657220696d706c656d656e7465720000000000000000000000000000602082015250565b600061243e60328361186b565b9150612449826123e2565b604082019050919050565b6000602082019050818103600083015261246d81612431565b9050919050565b60008190508160005260206000209050919050565b60006020601f8301049050919050565b600082821b905092915050565b6000600883026124d67fffffffffffffffffffffffffffffffffffffffffffffffffffffffffffffffff82612499565b6124e08683612499565b95508019841693508086168417925050509392505050565b6000819050919050565b600061251d61251861251384611912565b6124f8565b611912565b9050919050565b6000819050919050565b61253783612502565b61254b61254382612524565b8484546124a6565b825550505050565b600090565b612560612553565b61256b81848461252e565b505050565b5b8181101561258f57612584600082612558565b600181019050612571565b5050565b601f8211156125d4576125a581612474565b6125ae84612489565b810160208510156125bd578190505b6125d16125c985612489565b830182612570565b50505b505050565b600082821c905092915050565b60006125f7600019846008026125d9565b1980831691505092915050565b600061261083836125e6565b9150826002028217905092915050565b61262982611860565b67ffffffffffffffff81111561264257612641611b5d565b5b61264c8254611e64565b612657828285612593565b600060209050601f83116001811461268a5760008415612678578287015190505b6126828582612604565b8655506126ea565b601f19841661269886612474565b60005b828110156126c05784890151825560018201915060208501945060208101905061269b565b868310156126dd57848901516126d9601f8916826125e6565b8355505b6001600288020188555050505b505050505050565b60006126fd82611912565b915061270883611912565b92508282039050818111156127205761271f6121db565b5b92915050565b600061273182611912565b915061273c83611912565b9250828201905080821115612754576127536121db565b5b92915050565b600081519050919050565b600082825260208201905092915050565b60006127818261275a565b61278b8185612765565b935061279b81856020860161187c565b6127a4816118a6565b840191505092915050565b60006080820190506127c460008301876119a7565b6127d160208301866119a7565b6127de6040830185611abd565b81810360608301526127f08184612776565b905095945050505050565b60008151905061280a816117d1565b92915050565b6000602082840312156128265761282561179b565b5b6000612834848285016127fb565b91505092915050565b7f4552433732313a206d696e7420746f20746865207a65726f2061646472657373600082015250565b600061287360208361186b565b915061287e8261283d565b602082019050919050565b600060208201905081810360008301526128a281612866565b9050919050565b7f4552433732313a20746f6b656e20616c7265616479206d696e74656400000000600082015250565b60006128df601c8361186b565b91506128ea826128a9565b602082019050919050565b6000602082019050818103600083015261290e816128d2565b905091905056fea2646970667358221220f42b717cc10a5ef8f83a05b0f8fb3220fa8769c8712be4e395031de4d1b40e4c64736f6c63430008110033",
  "linkReferences": {},
  "deployedLinkReferences": {}
}